:040000008A15002835
:10000800FF00030E8301C6000A08C5008A017008B4
:10001800A1000B1D2728AC0A0319AD0A80302D0654
:10002800F00080302E3A7002031D1C28E0302C02AC
:10003800031C2428AC01AD010130B4000030B50028
:100048000B113F3081002108F00045088A00460E58
:080058008300FF0E7F0E09007A
:10006000FB14FB1F3A28FF30F300F200F100F00010
:08007000FA0DF20CFF3008004C
:0E007800F201F101F001F801F301003008007F
:100086007B15FB1F4D280130F300F201F101F00151
:08009600FA0DF20CFF30080026
:08009E00FA1FF2130030080004
:1000A6007C188928FC185A287C19A8285328A001EE
:1000B6007208031D7A287108F2007008F1007808AA
:1000C600F000F801A0157208031D7A287108F200E5
:1000D6007008F100F001A01120167208031D7A289D
:1000E6007108F200F101A015720803199C28200876
:1000F600F302031D031CA0280310F21B8928F80D28
:10010600F00DF10DF20DF30B8028A0287B1B701C5F
:10011600A428F81FA428F00A0319F10A0319F20A01
:10012600031DA428F20CF10CF00CF30A0319A828FD
:10013600A4280130FC003C20AB280230FC00432000
:10014600AB280430FC004F20AB280830FC003020E0
:04015600000008009D
:10015A00710DF80DF90D7408F8027508031C750F76
:10016A00F902F00DF10D0F30FC00710DF80DF90DCB
:10017A007408701CC628F8027508031C750FF9026A
:10018A00CB28F80775080318750FF907F00DF10D5C
:10019A00FC0BBA287018D7287408F80775080318D2
:0801AA00750FF90700000800C1
:1001B200A0017208031DEE287108F2007008F10018
:1001C200F001A0157208031DEE287108F200F1017A
:1001D200A011201672080319FC282008F302031D3F
:1001E200031C00290310F21B0429F00DF10DF20D7E
:1001F200F30BF42800290130FC003C2007290230CF
:0E020200FC00432007290430FC004F200800B8
:100210007B14FB1F1329F201FA1FFF30F200F100DB
:0A022000F000FA0DF20CFF300800A8
:10022A00831203137408003A031D24297508003A3F
:10023A00031D2429FF30F0007F30F1007D2983124D
:10024A000313FD01F901F801710870040319003460
:10025A0071087506FA00FA1BFD09FB01F51F3A2918
:10026A00F409F509F40A0319F50AF11F4129F009FD
:10027A00F109F00A0319F10A71087504FA00FA1B68
:10028A005629AD207B186929FD1F0034F009F109B0
:10029A00F00A0319F10AF809F909F80A0319F90A1F
:1002AA000034F51F6529F11B61297108F9007008EE
:1002BA00F800F101F0014929F101F001F00A0034D6
:1002CA00F109F009FB0A4629F80A0319F90A740820
:1002DA007802031D492975087902031D4929F90184
:1002EA00F801F00A0319F10AF11F49290000FF3445
:0202FA000800FA
:0602FC00FB15FF300800B5
:100302008312031372087606A000F801F90173083C
:100312007702031CA4297708FD007308F7007D0803
:10032200F3007608FD007208F6007D08F2007508F9
:10033200FD007108F5007D08F1007408FD007008E9
:10034200F4007D08F000770803191D2A7208FA00EC
:10035200F217F61777087302F7000319D729083046
:100362007702031CCD29F7007408F9007508F40020
:100372007608F500F60108307702031CCD29F70054
:100382007408F9007508F400F50108307702031CBF
:10039200CD297A08F2001D2A77080319D7290310FC
:1003A200F60CF50CF40CF90CF70BD029A01FE4297C
:1003B200F909F409F509F609F90A0319F40A031906
:1003C200F50A0319F60A7908F80774080318740F76
:1003D200F00775080318750FF10776080318760FF2
:1003E200F207A01BFD29031C0D2AF20CF10CF00CE4
:1003F200F80CF30F0D2A192A0318112AF809F0092B
:10040200F109F209F80A0319F00A0319F10A0319AA
:10041200F20A8030FA06152A0130FC0053201F2A06
:100422000230FC0053201F2A0430FC00D9201F2A6E
:100432000830FC0030201F2A0030FC0000000800B9
:10044200643083120313F4000030F5004C08F0000E
:100452004D08F100152100307106031D322A0030CB
:1004620070060319442A6430F4000030F5004C0889
:10047200F0004D08F10015213030F0074E088400DD
:1004820070088000482A4E088400203080000A301C
:10049200F4000030F5004C08F0004D08F100152181
:1004A20000307106031D572A003070060319742AA2
:1004B2004E0ACF000A30F4000030F5004C08F0007C
:1004C2004D08F10015210A30F4000030F500152125
:1004D2007808F0007908F1003030F0074F08840006
:1004E20070088000782A4E0A840020308000023092
:1004F2004E07CF000A30F4000030F5004C08F0003F
:100502004D08F10015217808F0007908F10030302B
:0C051200F0074F0884007008800008000B
:10051E0083120313FB017308031D77080319E62AE0
:10052E0072087606FA007708F3077E30031CA32ABA
:10053E00F3020318E92AA62AF302031CEC2A720816
:10054E00F8007108FC007008FD00F817F61703108C
:10055E00F201F101F0011830A0007D1CC02A7408D0
:10056E00F00775080318750FF10776080318760F54
:10057E00F207F20CF10CF00CF80CFC0CFD0C031055
:10058E00A00BB42AF21BD02AF80DF00DF10DF20DCE
:10059E00F3037B1B701CE22AF81FE22AF00A0319F0
:1005AE00F10A0319F20A031DE22AF20CF10CF00C07
:1005BE00F30A0319E92AFA1FF2130030EE2A01306A
:1005CE003C20EE2A02303020EE2A04304320000078
:0205DE00080013
:1005E000831203137008F8007108F000F101F201A2
:1005F000F301FB01FC019630F300FA01F01F062B1A
:10060000F809F009F80A0319F00AFA177008F1005E
:0C0610007808F000F801F201D920080081
:10061C00831603130610831206104130FC00EE30D3
:10062C00FD00FD0B172BFC0B172B000006141030D4
:0E063C00FD00FD0B1F2B0000831606140800A6
:10064A0083120313FB0173080319622B7208FA0061
:10065A00F2178E30F302F31F652BF309F30A083001
:10066A007302031C482BF300F10D7208F100F2012A
:10067A0008307302031C482BF300F10DF1017308D3
:10068A00031D0310502B73080319502B0310F20C8F
:10069A00F10CF30B4B2B7B1B711C5A2B031C5A2B93
:1006AA00F10A0319F20AF21B712BFA1F742BF209D1
:1006BA00F109F10A0319F20A742BF201F101742B00
:1006CA007B14FB1F772BF201FA1F772BFF30F20006
:1006DA00F100FA0DF20C772B0130FC00792B003077
:1006EA00FC00792BFF30FC00FC0803197D2B082144
:0A06FA007108F0007208F10008001A
:0E0704008312031348088A0047088200080089
:0C071200831203138030F60681210800DA
:10071E00831203134C0884008001F20180307206AC
:10072E00F0008030083A70020318D12B8F018E0131
:10073E000618A92B0E08643C0318A82B0130F000F4
:10074E00D22B9F2B8F018E01061CB52B0E08643CFD
:10075E000318B42B0130F000D22BAB2B0E08323C19
:10076E000318CF2B7208073CF0007008F10001301F
:10077E00F00071080319C72BF00D7010FF3EC12B4E
:10078E004C0884000008F0044C08840070088000B7
:08079E00F20A952BF00108009E
:1007A600831203138F018E0110140618DF2B643099
:1007B6000E020318DF2BD82B0E08633C0318E52B1B
:1007C600F001F62B8F018E01061CEE2B64300E0213
:1007D6000318EE2BE72B0E08633C0318F42BF001ED
:0807E600F62B0130F0000800C1
:1007EE00831203137408003A031D122C7508003A85
:1007FE00031D122C7608003A031D122C7708003ABE
:10080E00031D122CFF30F000FF30F1007F30F2009C
:10081E00FF30F300AD2C8312031377080319A12CBC
:10082E0073080319A42C720876068039FA00F217A1
:10083E00F617A0017208F8007108FC007008FD00A0
:10084E007408FD027508031C750FFC027608031C64
:10085E00760FF802F801FC01FD01031C3D2C03107C
:10086E00F20CF10CF00CF80C0130A0007708F3023A
:10087E00031C472C7E302007F3070318A72C4C2CA3
:10088E007E302007F307031CAA2C1830FA07FD0D43
:10089E00FC0DF80DF00DF10DF20DA00D7408F00227
:1008AE007508031C750FF1027608031C760FF20211
:1008BE00760DA004201C652C7D14702C7408F00796
:1008CE0075080318750FF10776080318760AF207F4
:1008DE007D10FA031F307A05031D4E2C7B1B7D1CE9
:1008EE00972C0310F00DF10DF20DA00D7408F0020F
:1008FE007508031C750FF1027608031C760FF202C1
:10090E00760D20040139FD070318FC0A0319F80AB5
:10091E00031D972CF80CFC0CFD0CF30A0319A72CE5
:10092E00FA1FF8137808F2007C08F1007D08F00039
:10093E000030AC2C01307E21AC2C02303C20AC2C93
:0E094E0004303020AC2C08304320000008009C
:10095C0083120313F8010830FC00700DF80D7408B5
:10096C00F8020318BB2CF8070310F00DFC0BB32C8A
:02097C00080071
:10097E0083120313AE01AF0183122E0849078400C0
:10098E000008003A0319E12C8316981CD72C831209
:10099E002E084907840000089900AE0A0319AF0A11
:1009AE001A30FC00F830FD00FD0BDB2CFC0BDB2CB1
:0609BE000000C32C08003C
:1009C400831203134908F3004908F200C90A4A08CC
:1009D400F0004B08F100CA0A0319CB0A7008C700DB
:1009E4007108C80082238A110A12F0007208840078
:1009F400700880007208840000080319022DE62C98
:060A04007308F000080079
:100A0A0083120313FA017308031D7A147708031D6E
:100A1A00FA147A080319512D033A03191C2D7A186E
:100A2A00192DF61F4F2D4D2DF21F4D2D4F2D7208EA
:100A3A008039FA00F21376088039F6137A06031918
:100A4A002A2D7A0803194D2D4F2D770873020319A1
:100A5A00312D031C452D492D760872020319382DB4
:100A6A00031C452D492D7508710203193F2D031CDE
:100A7A00452D492D740870020319512D0318492D6B
:100A8A00FA0803194F2D4D2DFA0803194D2D4F2D34
:100A9A0003140800031008000314031508000800D3
:100AAA000E23D32370080319CD2D4130CC008F2398
:100ABA007008031D792D4030CC008F237008031D68
:100ACA00792D4230CC008F237008031D792D4430D4
:100ADA00CC008F237008031D792D4330CC008F235F
:100AEA007008031D792D7A2DCC2D40084107F0009E
:100AFA00F1010318F10A4208F0070318F10A440841
:100B0A00F0070318F10AFF307005F2007108F300CC
:100B1A000030F30500307306031D952D7208430655
:100B2A00031DCC2D0A30F4004208F000AE24303008
:100B3A007007BB000A30F4004208F000AE247808BF
:100B4A00F00030307007BC000A30F4004408F000AE
:100B5A00AE2430307007BE000A30F4004108F000BD
:100B6A00AE2430307007B6000A30F4004108F000B5
:100B7A00AE247808F00030307007B7000A30F4006D
:100B8A004008F000AE2430307007B900CC2DCD2DCE
:100B9A0010100B30FB002630FC005D30FD00FD0B11
:100BAA00D42DFC0BD42DFB0BD42D00000000080023
:100BBA00831203139F18332E1E08F100F0018316C7
:100BCA001E08F0070318F10AF0220030F400003082
:100BDA00F5000030F6008930F700F7230030F40002
:100BEA000030F5004830F6008530F7008F22700893
:100BFA00F4007108F5007208F6007308F700003077
:100C0A00F0000030F1004830F2008530F30089230B
:100C1A0025237008C9007108CA004908A6004A08B5
:100C2A00A7004908F0004A08F100F0227008A20063
:100C3A007108A3007208A4007308A5004908CC0033
:100C4A004A08CD002830CE0021221A30FC00F830A4
:0E0C5A00FD00FD0B2E2EFC0B2E2E00000800C0
:100C6800831203139E0183169E0183129F151F1181
:100C78000630FB001330FC00AD30FD00FD0B422EAA
:0E0C8800FC0B422EFB0B422E00000000080069
:100C960083160313811281110115811401143F304B
:0C0CA600831281008B178B160B110800C5
:100CB20083160313981683129817831618120317B4
:100CC200871103131815193099008B170B178C16FF
:020CD200080018
:100CD400831603178816031309140317081703133D
:100CE400891483129F171F139F121F1683169F17B1
:060CF4009F121F12080010
:100CFA00831203139F18B12E1E08F100F001831608
:100D0A001E08F0070318F10AF0220030F400003040
:100D1A00F5000030F6008930F700F7230030F400C0
:100D2A000030F5004830F6008530F7008F22252381
:100D3A007008A6007108A7007008CC007108CD00E1
:100D4A003030CE0021221A30FC00F830FD00FD0BB5
:0A0D5A00AC2EFC0BAC2E00000800CC
:100D6400831203139E0183169E0183129F111F1584
:100D74000630FB001330FC00AD30FD00FD0BC02E2F
:0E0D8400FC0BC02EFB0BC02E00000000080070
:100D920082238A110A128000840AC70A0319C80A28
:080DA200F003031DC92E080037
:1010000083120313A201A301A401A501A601A70154
:101010002030A8002030A9002030AA00AB01AC018C
:10102000AD01AE01AF012030B0002030B100203062
:10103000B200B3010130B400B5012030B600203059
:10104000B7002E30B8002030B900BA012030BB0004
:101050002030BC002E30BD002030BE00BF01831602
:1010600003178901703003138F0010308312900032
:101070008F018E0183160810831288018A116A2657
:101080008A158A1159268A158A114B268A158A11C2
:10109000B2268A151F149F140630FB001330FC0083
:1010A000AD30FD00FD0B5228FC0B5228FB0B5228E3
:1010B000000000008A117D268A158A1134268A15BF
:1010C0001F149F140630FB001330FC00AD30FD00F0
:1010D000FD0B6828FC0B6828FB0B6828000000004B
:1010E0008A11DD258A150630FB001330FC00AD3077
:1010F000FD00FD0B7928FC0B7928FB0B79280000FB
:1011000000008A1155258A150030F4000030F500E2
:101110002030F6008230F7002208F0002308F100AA
:101120002408F2002508F3008A1105258A150130EC
:1011300003180030F0007008031913290818132948
:1011400008142C08AE002D08AF00A030C900D5301F
:10115000CA000630CB008A11E2248A157008C90043
:101160008A11BF248A158A1134268A151F149F14E8
:101170000230FB000430FC00BA30FD00FD0BBE283D
:10118000FC0BBE28FB0BBE2800008A11DD258A154A
:101190000230FB000430FC00BA30FD00FD0BCE280D
:1011A000FC0BCE28FB0BCE2800000030F4000030F2
:1011B000F5007030F6008330F7002208F0002308B5
:1011C000F1002408F2002508F3008A1105258A158C
:1011D000013003180030F0007008031904292E08AC
:1011E0002C02F1002F08031C013E2D02F20080307A
:1011F0007206F0008030093A7002031D0129603048
:10120000710203180429B3280810A030C900153052
:10121000CA000A30CB008A11E2248A157008C9007E
:101220008A11BF248A150030831203133506031D6B
:101230001B2901303406031D052AA030C900F730F0
:10124000CA000730CB008A11E2248A157008C90051
:101250008A11BF248A153D3083120313FB00E1304D
:10126000FC003F30FD00FD0B3329FC0B3329FB0B49
:101270003329000000003D30FB00E130FC003F302E
:10128000FD00FD0B4129FC0B4129FB0B412900000E
:101290000000A030C9006230CA000730CB008A11BC
:1012A000E2248A157008C9008A11BF248A151530F6
:1012B00083120313FB004B30FC00BE30FD00FD0B1E
:1012C0005F29FC0B5F29FB0B5F290000A030C900E0
:1012D0003030CA000A30CB008A11E2248A15700827
:1012E000C9008A11BF248A15153083120313FB002D
:1012F0004B30FC00BE30FD00FD0B7C29FC0B7C2933
:10130000FB0B7C290000A030C900D330CA00073095
:10131000CB008A11E2248A157008C9008A11BF2403
:101320008A15A03083120313C900AF30CA000730FA
:10133000CB008A11E2248A157008C9008A11BF24E3
:101340008A15A03083120313C9003730CA00073052
:10135000CB008A11E2248A157008C9008A11BF24C3
:101360008A15A03083120313C9000930CA00073060
:10137000CB008A11E2248A153B088316BB00831236
:101380003C088316BC0083123E088316BE008312FD
:1013900036088316C900831237088316CA008312E1
:1013A00039088316CC00A0308312C9008A11BF24EB
:1013B0008A15A03083120313C9008930CA00073090
:1013C000CB008A11E2248A1528088316AF00831205
:1013D00029088316B00083122A088316B1008312ED
:1013E00030088316C000831231088316C1008312AF
:1013F00032088316C200A0308312C9008A11BF24AC
:101400008A1583120313B401B5013330FB00BB30DE
:10141000FC00DF30FD00FD0B0B2AFC0B0B2AFB0B45
:0A1420000B2A000000004728142AE0
:100DAA005734613474346534723420347034753491
:100DBA006D34703420346134633474346934763475
:100DCA0061347434653464342C3420346D346F34B3
:100DDA0069347334743475347234653420346C3441
:100DEA006534763465346C34203469347334203491
:100DFA0074346F346F3420346C346F347734203465
:080E0A0021340D340A340034D8
:100E12002D344C3465346E346734743468343A3467
:100E22002034363435340D340A340D340A347434F3
:100E320065346D34703465347234613474347534AD
:100E4200723465343D34203420342E342034263438
:100E5200683475346D346934643469347434793483
:0C0E62003D34203420342E342034003481
:100E6E006134703470346C34693463346134743486
:100E7E0069346F346E342F3478342D3477347734BC
:100E8E0077342D3466346F3472346D342D347534BA
:100E9E0072346C3465346E3463346F346434653458
:100EAE0064340D340A3443346F346E347434653420
:060EBE006E3474340034B0
:100EC400413454342B34433449345034533454343B
:100ED4004134523454343D34223454344334503441
:100EE40022342C3422343134393432342E343134F3
:100EF400363438342E343134333437342E343134B8
:0E0F040022342C34383430340D340A340034A6
:100F1200263473346F3469346C345F346D346F3417
:100F22006934733474347534723465343D34203426
:100F320020342034263469346C346C3475346D3486
:100F420069346E346134743469346F346E343D34D0
:0C0F52002034203420340D340A340034E4
:100F5E0048346F34733474343A3420343134393481
:100F6E0032342E343134363438342E343134333442
:100F7E0037342E3431340D340A3443346F346E34F6
:100F8E00743465346E3474342D345434793470348E
:080F9E0065343A3420340034BC
:100FA60050344F345334543420342F346D34653434
:100FB600613473347534723465346D3465346E342B
:100FC60074342F3469346E34733465347234743443
:100FD600203448345434543450342F3431342E347D
:080FE60031340D340A340034EB
:100FEE00413454342B345234533454340D340A3483
:020FFE000034BD
:10142A00573461347434653472342034703475340A
:10143A006D34703420346434653461346334743404
:10144A006934763461347434653464342034213434
:06145A000D340A340034D9
:10146000413454342B3443344934503453344534A8
:101470004E3444343D343134393434340D340A3448
:02148000003436
:04400E00F22F000786
:00000001FF
